{
  "contractName": "SphynxVRFConsumer",
  "abi": [
    {
      "inputs": [],
      "stateMutability": "nonpayable",
      "type": "constructor"
    },
    {
      "anonymous": false,
      "inputs": [
        {
          "indexed": true,
          "internalType": "address",
          "name": "previousOwner",
          "type": "address"
        },
        {
          "indexed": true,
          "internalType": "address",
          "name": "newOwner",
          "type": "address"
        }
      ],
      "name": "OwnershipTransferred",
      "type": "event"
    },
    {
      "inputs": [],
      "name": "linkTokenAddress",
      "outputs": [
        {
          "internalType": "address",
          "name": "",
          "type": "address"
        }
      ],
      "stateMutability": "view",
      "type": "function",
      "constant": true
    },
    {
      "inputs": [],
      "name": "owner",
      "outputs": [
        {
          "internalType": "address",
          "name": "",
          "type": "address"
        }
      ],
      "stateMutability": "view",
      "type": "function",
      "constant": true
    },
    {
      "inputs": [],
      "name": "randomResult",
      "outputs": [
        {
          "internalType": "uint256",
          "name": "",
          "type": "uint256"
        }
      ],
      "stateMutability": "view",
      "type": "function",
      "constant": true
    },
    {
      "inputs": [
        {
          "internalType": "bytes32",
          "name": "requestId",
          "type": "bytes32"
        },
        {
          "internalType": "uint256",
          "name": "randomness",
          "type": "uint256"
        }
      ],
      "name": "rawFulfillRandomness",
      "outputs": [],
      "stateMutability": "nonpayable",
      "type": "function"
    },
    {
      "inputs": [],
      "name": "renounceOwnership",
      "outputs": [],
      "stateMutability": "nonpayable",
      "type": "function"
    },
    {
      "inputs": [],
      "name": "reqId",
      "outputs": [
        {
          "internalType": "bytes32",
          "name": "",
          "type": "bytes32"
        }
      ],
      "stateMutability": "view",
      "type": "function",
      "constant": true
    },
    {
      "inputs": [
        {
          "internalType": "address",
          "name": "newOwner",
          "type": "address"
        }
      ],
      "name": "transferOwnership",
      "outputs": [],
      "stateMutability": "nonpayable",
      "type": "function"
    },
    {
      "inputs": [],
      "name": "getRandomNumber",
      "outputs": [
        {
          "internalType": "bytes32",
          "name": "requestId",
          "type": "bytes32"
        }
      ],
      "stateMutability": "nonpayable",
      "type": "function"
    },
    {
      "inputs": [],
      "name": "withdrawLink",
      "outputs": [],
      "stateMutability": "nonpayable",
      "type": "function"
    }
  ],
  "bytecode": "0x60c060405273326c977e6efc84e512bb9c30f76e30c160ed06fb600460006101000a81548173ffffffffffffffffffffffffffffffffffffffff021916908373ffffffffffffffffffffffffffffffffffffffff16021790555034801561006557600080fd5b5073b33d8a4e62236ea91f3a8fd7ab15a95b9b7eec7d73326c977e6efc84e512bb9c30f76e30c160ed06fb8173ffffffffffffffffffffffffffffffffffffffff1660a08173ffffffffffffffffffffffffffffffffffffffff1660601b815250508073ffffffffffffffffffffffffffffffffffffffff1660808173ffffffffffffffffffffffffffffffffffffffff1660601b81525050505061011c61011161016260201b60201c565b61016a60201b60201c565b7f6c3699283bda56ad74f6b855546325b68d482e983852a7a82979cc4807b641f460001b60028190555067016345785d8a00006003819055506000600581905550610230565b600033905090565b6000600160009054906101000a900473ffffffffffffffffffffffffffffffffffffffff16905081600160006101000a81548173ffffffffffffffffffffffffffffffffffffffff021916908373ffffffffffffffffffffffffffffffffffffffff1602179055508173ffffffffffffffffffffffffffffffffffffffff168173ffffffffffffffffffffffffffffffffffffffff167f8be0079c531659141344cd1fd0a4f28419497f9722a3daafe3b4186f6b6457e060405160405180910390a35050565b60805160601c60a05160601c610fdf610277600039600081816103a9015261078301526000818161023c015281816102810152818161044a01526107470152610fdf6000f3fe608060405234801561001057600080fd5b50600436106100935760003560e01c80638dc654a2116100665780638dc654a2146100fc57806394985ddd14610106578063dbdff2c114610122578063ef124faf14610140578063f2fde38b1461015e57610093565b806342619f6614610098578063715018a6146100b65780638997ce4e146100c05780638da5cb5b146100de575b600080fd5b6100a061017a565b6040516100ad9190610dd6565b60405180910390f35b6100be610180565b005b6100c8610208565b6040516100d59190610ccd565b60405180910390f35b6100e661020e565b6040516100f39190610c3d565b60405180910390f35b610104610238565b005b610120600480360381019061011b91906109cc565b6103a7565b005b61012a610443565b6040516101379190610ccd565b60405180910390f35b610148610545565b6040516101559190610c3d565b60405180910390f35b6101786004803603810190610173919061097a565b61056b565b005b60055481565b610188610663565b73ffffffffffffffffffffffffffffffffffffffff166101a661020e565b73ffffffffffffffffffffffffffffffffffffffff16146101fc576040517f08c379a00000000000000000000000000000000000000000000000000000000081526004016101f390610d96565b60405180910390fd5b610206600061066b565b565b60065481565b6000600160009054906101000a900473ffffffffffffffffffffffffffffffffffffffff16905090565b60007f000000000000000000000000000000000000000000000000000000000000000073ffffffffffffffffffffffffffffffffffffffff166323b872dd3061027f61020e565b7f000000000000000000000000000000000000000000000000000000000000000073ffffffffffffffffffffffffffffffffffffffff166370a08231306040518263ffffffff1660e01b81526004016102d89190610c3d565b60206040518083038186803b1580156102f057600080fd5b505afa158015610304573d6000803e3d6000fd5b505050506040513d601f19601f820116820180604052508101906103289190610a08565b6040518463ffffffff1660e01b815260040161034693929190610c58565b602060405180830381600087803b15801561036057600080fd5b505af1158015610374573d6000803e3d6000fd5b505050506040513d601f19601f8201168201806040525081019061039891906109a3565b9050806103a457600080fd5b50565b7f000000000000000000000000000000000000000000000000000000000000000073ffffffffffffffffffffffffffffffffffffffff163373ffffffffffffffffffffffffffffffffffffffff1614610435576040517f08c379a000000000000000000000000000000000000000000000000000000000815260040161042c90610db6565b60405180910390fd5b61043f8282610731565b5050565b60006003547f000000000000000000000000000000000000000000000000000000000000000073ffffffffffffffffffffffffffffffffffffffff166370a08231306040518263ffffffff1660e01b81526004016104a19190610c3d565b60206040518083038186803b1580156104b957600080fd5b505afa1580156104cd573d6000803e3d6000fd5b505050506040513d601f19601f820116820180604052508101906104f19190610a08565b1015610532576040517f08c379a000000000000000000000000000000000000000000000000000000000815260040161052990610d76565b60405180910390fd5b610540600254600354610743565b905090565b600460009054906101000a900473ffffffffffffffffffffffffffffffffffffffff1681565b610573610663565b73ffffffffffffffffffffffffffffffffffffffff1661059161020e565b73ffffffffffffffffffffffffffffffffffffffff16146105e7576040517f08c379a00000000000000000000000000000000000000000000000000000000081526004016105de90610d96565b60405180910390fd5b600073ffffffffffffffffffffffffffffffffffffffff168173ffffffffffffffffffffffffffffffffffffffff161415610657576040517f08c379a000000000000000000000000000000000000000000000000000000000815260040161064e90610d56565b60405180910390fd5b6106608161066b565b50565b600033905090565b6000600160009054906101000a900473ffffffffffffffffffffffffffffffffffffffff16905081600160006101000a81548173ffffffffffffffffffffffffffffffffffffffff021916908373ffffffffffffffffffffffffffffffffffffffff1602179055508173ffffffffffffffffffffffffffffffffffffffff168173ffffffffffffffffffffffffffffffffffffffff167f8be0079c531659141344cd1fd0a4f28419497f9722a3daafe3b4186f6b6457e060405160405180910390a35050565b81600681905550806005819055505050565b60007f000000000000000000000000000000000000000000000000000000000000000073ffffffffffffffffffffffffffffffffffffffff16634000aea07f0000000000000000000000000000000000000000000000000000000000000000848660006040516020016107b7929190610ce8565b6040516020818303038152906040526040518463ffffffff1660e01b81526004016107e493929190610c8f565b602060405180830381600087803b1580156107fe57600080fd5b505af1158015610812573d6000803e3d6000fd5b505050506040513d601f19601f8201168201806040525081019061083691906109a3565b50600061085884600030600080898152602001908152602001600020546108a2565b90506001600080868152602001908152602001600020546108799190610e1e565b6000808681526020019081526020016000208190555061089984826108de565b91505092915050565b6000848484846040516020016108bb9493929190610d11565b6040516020818303038152906040528051906020012060001c9050949350505050565b600082826040516020016108f3929190610c11565b60405160208183030381529060405280519060200120905092915050565b60008135905061092081610f4d565b92915050565b60008151905061093581610f64565b92915050565b60008135905061094a81610f7b565b92915050565b60008135905061095f81610f92565b92915050565b60008151905061097481610f92565b92915050565b60006020828403121561098c57600080fd5b600061099a84828501610911565b91505092915050565b6000602082840312156109b557600080fd5b60006109c384828501610926565b91505092915050565b600080604083850312156109df57600080fd5b60006109ed8582860161093b565b92505060206109fe85828601610950565b9150509250929050565b600060208284031215610a1a57600080fd5b6000610a2884828501610965565b91505092915050565b610a3a81610e74565b82525050565b610a4981610e92565b82525050565b610a60610a5b82610e92565b610ef9565b82525050565b6000610a7182610df1565b610a7b8185610dfc565b9350610a8b818560208601610ec6565b610a9481610f3c565b840191505092915050565b6000610aac602683610e0d565b91507f4f776e61626c653a206e6577206f776e657220697320746865207a65726f206160008301527f64647265737300000000000000000000000000000000000000000000000000006020830152604082019050919050565b6000610b12602b83610e0d565b91507f4e6f7420656e6f756768204c494e4b202d2066696c6c20636f6e74726163742060008301527f77697468206661756365740000000000000000000000000000000000000000006020830152604082019050919050565b6000610b78602083610e0d565b91507f4f776e61626c653a2063616c6c6572206973206e6f7420746865206f776e65726000830152602082019050919050565b6000610bb8601f83610e0d565b91507f4f6e6c7920565246436f6f7264696e61746f722063616e2066756c66696c6c006000830152602082019050919050565b610bf481610ebc565b82525050565b610c0b610c0682610ebc565b610f03565b82525050565b6000610c1d8285610a4f565b602082019150610c2d8284610bfa565b6020820191508190509392505050565b6000602082019050610c526000830184610a31565b92915050565b6000606082019050610c6d6000830186610a31565b610c7a6020830185610a31565b610c876040830184610beb565b949350505050565b6000606082019050610ca46000830186610a31565b610cb16020830185610beb565b8181036040830152610cc38184610a66565b9050949350505050565b6000602082019050610ce26000830184610a40565b92915050565b6000604082019050610cfd6000830185610a40565b610d0a6020830184610beb565b9392505050565b6000608082019050610d266000830187610a40565b610d336020830186610beb565b610d406040830185610a31565b610d4d6060830184610beb565b95945050505050565b60006020820190508181036000830152610d6f81610a9f565b9050919050565b60006020820190508181036000830152610d8f81610b05565b9050919050565b60006020820190508181036000830152610daf81610b6b565b9050919050565b60006020820190508181036000830152610dcf81610bab565b9050919050565b6000602082019050610deb6000830184610beb565b92915050565b600081519050919050565b600082825260208201905092915050565b600082825260208201905092915050565b6000610e2982610ebc565b9150610e3483610ebc565b9250827fffffffffffffffffffffffffffffffffffffffffffffffffffffffffffffffff03821115610e6957610e68610f0d565b5b828201905092915050565b6000610e7f82610e9c565b9050919050565b60008115159050919050565b6000819050919050565b600073ffffffffffffffffffffffffffffffffffffffff82169050919050565b6000819050919050565b60005b83811015610ee4578082015181840152602081019050610ec9565b83811115610ef3576000848401525b50505050565b6000819050919050565b6000819050919050565b7f4e487b7100000000000000000000000000000000000000000000000000000000600052601160045260246000fd5b6000601f19601f8301169050919050565b610f5681610e74565b8114610f6157600080fd5b50565b610f6d81610e86565b8114610f7857600080fd5b50565b610f8481610e92565b8114610f8f57600080fd5b50565b610f9b81610ebc565b8114610fa657600080fd5b5056fea264697066735822122094af0d8047550e6545bfd53f85268f1ae56cdd594ef6d0cf72cdbeed860929b264736f6c63430008000033",
  "immutableReferences": {
    "73": [
      {
        "length": 32,
        "start": 572
      },
      {
        "length": 32,
        "start": 641
      },
      {
        "length": 32,
        "start": 1098
      },
      {
        "length": 32,
        "start": 1863
      }
    ],
    "75": [
      {
        "length": 32,
        "start": 937
      },
      {
        "length": 32,
        "start": 1923
      }
    ]
  },
  "source": "// SPDX-License-Identifier: MIT\npragma solidity >=0.7.0 <0.9.0;\n\nimport \"@chainlink/contracts/src/v0.8/VRFConsumerBase.sol\";\nimport \"@openzeppelin/contracts/access/Ownable.sol\";\nimport '@openzeppelin/contracts/token/ERC20/IERC20.sol';\n\n/**\n * THIS IS AN EXAMPLE CONTRACT WHICH USES HARDCODED VALUES FOR CLARITY.\n * PLEASE DO NOT USE THIS CODE IN PRODUCTION.\n */\n\n/**\n * Request testnet LINK and ETH here: https://faucets.chain.link/\n * Find information on LINK Token Contracts and get the latest ETH and LINK faucets here: https://docs.chain.link/docs/link-token-contracts/\n */\n \ncontract SphynxVRFConsumer is VRFConsumerBase, Ownable {\n    \n    bytes32 internal keyHash;\n    uint256 internal fee;\n    address public linkTokenAddress = 0x326C977E6efc84E512bB9C30f76E30c160eD06FB;\n    \n    uint256 public randomResult;\n    bytes32 public reqId;\n    \n    /**\n     * Constructor inherits VRFConsumerBase\n     * \n     * Network: Kovan\n     * Chainlink VRF Coordinator address: 0xb33D8A4e62236eA91F3a8fD7ab15A95B9B7eEc7D\n     * LINK token address:                0x326C977E6efc84E512bB9C30f76E30c160eD06FB\n     * Key Hash: 0x6c3699283bda56ad74f6b855546325b68d482e983852a7a82979cc4807b641f4\n     */\n    constructor() \n        VRFConsumerBase(\n          0xb33D8A4e62236eA91F3a8fD7ab15A95B9B7eEc7D,\n          0x326C977E6efc84E512bB9C30f76E30c160eD06FB\n        )\n    {\n      keyHash = 0x6c3699283bda56ad74f6b855546325b68d482e983852a7a82979cc4807b641f4;\n      fee = 0.1 * 10 ** 18; // 0.1 LINK (Varies by network)\n      randomResult = 0;\n    }\n    \n    /** \n     * Requests randomness \n     */\n    function getRandomNumber() public returns (bytes32 requestId) {\n      require(LINK.balanceOf(address(this)) >= fee, \"Not enough LINK - fill contract with faucet\");\n      return requestRandomness(keyHash, fee);\n    }\n\n    /**\n     * Callback function used by VRF Coordinator\n     */\n    function fulfillRandomness(bytes32 requestId, uint256 randomness) internal override {\n      reqId = requestId;\n      randomResult = randomness;\n    }\n\n    function withdrawLink() external {\n      bool success = LINK.transferFrom(address(this), address(owner()), LINK.balanceOf(address(this)));\n      require(success);\n    }\n}",
  "sourcePath": "/home/andrei/workspace/sphynx-vrf-consumer/contracts/SphynxVRFConsumer.sol",
  "compiler": {
    "name": "solc",
    "version": "0.8.0+commit.c7dfd78e.Emscripten.clang"
  },
  "schemaVersion": "3.4.3",
  "updatedAt": "2022-01-12T13:37:16.082Z",
  "networkType": "ethereum",
  "devdoc": {
    "kind": "dev",
    "methods": {
      "owner()": {
        "details": "Returns the address of the current owner."
      },
      "renounceOwnership()": {
        "details": "Leaves the contract without owner. It will not be possible to call `onlyOwner` functions anymore. Can only be called by the current owner. NOTE: Renouncing ownership will leave the contract without an owner, thereby removing any functionality that is only available to the owner."
      },
      "transferOwnership(address)": {
        "details": "Transfers ownership of the contract to a new account (`newOwner`). Can only be called by the current owner."
      }
    },
    "version": 1
  },
  "userdoc": {
    "kind": "user",
    "methods": {
      "constructor": {
        "notice": "Constructor inherits VRFConsumerBase  Network: Kovan Chainlink VRF Coordinator address: 0xb33D8A4e62236eA91F3a8fD7ab15A95B9B7eEc7D LINK token address:                0x326C977E6efc84E512bB9C30f76E30c160eD06FB Key Hash: 0x6c3699283bda56ad74f6b855546325b68d482e983852a7a82979cc4807b641f4"
      },
      "getRandomNumber()": {
        "notice": "Requests randomness "
      }
    },
    "notice": "Request testnet LINK and ETH here: https://faucets.chain.link/ Find information on LINK Token Contracts and get the latest ETH and LINK faucets here: https://docs.chain.link/docs/link-token-contracts/",
    "version": 1
  }
}