{
  "contractName": "SphynxVRFConsumer",
  "abi": [
    {
      "inputs": [],
      "stateMutability": "nonpayable",
      "type": "constructor"
    },
    {
      "anonymous": false,
      "inputs": [
        {
          "indexed": true,
          "internalType": "address",
          "name": "previousOwner",
          "type": "address"
        },
        {
          "indexed": true,
          "internalType": "address",
          "name": "newOwner",
          "type": "address"
        }
      ],
      "name": "OwnershipTransferred",
      "type": "event"
    },
    {
      "inputs": [],
      "name": "linkTokenAddress",
      "outputs": [
        {
          "internalType": "address",
          "name": "",
          "type": "address"
        }
      ],
      "stateMutability": "view",
      "type": "function",
      "constant": true
    },
    {
      "inputs": [],
      "name": "owner",
      "outputs": [
        {
          "internalType": "address",
          "name": "",
          "type": "address"
        }
      ],
      "stateMutability": "view",
      "type": "function",
      "constant": true
    },
    {
      "inputs": [],
      "name": "randomResult",
      "outputs": [
        {
          "internalType": "uint256",
          "name": "",
          "type": "uint256"
        }
      ],
      "stateMutability": "view",
      "type": "function",
      "constant": true
    },
    {
      "inputs": [
        {
          "internalType": "bytes32",
          "name": "requestId",
          "type": "bytes32"
        },
        {
          "internalType": "uint256",
          "name": "randomness",
          "type": "uint256"
        }
      ],
      "name": "rawFulfillRandomness",
      "outputs": [],
      "stateMutability": "nonpayable",
      "type": "function"
    },
    {
      "inputs": [],
      "name": "renounceOwnership",
      "outputs": [],
      "stateMutability": "nonpayable",
      "type": "function"
    },
    {
      "inputs": [],
      "name": "reqId",
      "outputs": [
        {
          "internalType": "bytes32",
          "name": "",
          "type": "bytes32"
        }
      ],
      "stateMutability": "view",
      "type": "function",
      "constant": true
    },
    {
      "inputs": [
        {
          "internalType": "address",
          "name": "newOwner",
          "type": "address"
        }
      ],
      "name": "transferOwnership",
      "outputs": [],
      "stateMutability": "nonpayable",
      "type": "function"
    },
    {
      "inputs": [],
      "name": "getRandomNumber",
      "outputs": [
        {
          "internalType": "bytes32",
          "name": "requestId",
          "type": "bytes32"
        }
      ],
      "stateMutability": "nonpayable",
      "type": "function"
    },
    {
      "inputs": [],
      "name": "withdrawLink",
      "outputs": [],
      "stateMutability": "nonpayable",
      "type": "function"
    }
  ],
  "bytecode": "0x60c060405273326c977e6efc84e512bb9c30f76e30c160ed06fb600460006101000a81548173ffffffffffffffffffffffffffffffffffffffff021916908373ffffffffffffffffffffffffffffffffffffffff16021790555034801561006557600080fd5b50738c7382f9d8f56b33781fe506e897a4f1e2d1725573326c977e6efc84e512bb9c30f76e30c160ed06fb8173ffffffffffffffffffffffffffffffffffffffff1660a08173ffffffffffffffffffffffffffffffffffffffff1660601b815250508073ffffffffffffffffffffffffffffffffffffffff1660808173ffffffffffffffffffffffffffffffffffffffff1660601b81525050505061011c61011161016060201b60201c565b61016860201b60201c565b7f6e75b569a01ef56d18cab6a8e71e6600d6ce853834d4a5748b720d06f878b3a460001b600281905550655af3107a4000600381905550600060058190555061022e565b600033905090565b6000600160009054906101000a900473ffffffffffffffffffffffffffffffffffffffff16905081600160006101000a81548173ffffffffffffffffffffffffffffffffffffffff021916908373ffffffffffffffffffffffffffffffffffffffff1602179055508173ffffffffffffffffffffffffffffffffffffffff168173ffffffffffffffffffffffffffffffffffffffff167f8be0079c531659141344cd1fd0a4f28419497f9722a3daafe3b4186f6b6457e060405160405180910390a35050565b60805160601c60a05160601c610fcf610275600039600081816103a7015261078101526000818161023c015281816102800152818161044801526107450152610fcf6000f3fe608060405234801561001057600080fd5b50600436106100935760003560e01c80638dc654a2116100665780638dc654a2146100fc57806394985ddd14610106578063dbdff2c114610122578063ef124faf14610140578063f2fde38b1461015e57610093565b806342619f6614610098578063715018a6146100b65780638997ce4e146100c05780638da5cb5b146100de575b600080fd5b6100a061017a565b6040516100ad9190610dc6565b60405180910390f35b6100be610180565b005b6100c8610208565b6040516100d59190610cbd565b60405180910390f35b6100e661020e565b6040516100f39190610c3b565b60405180910390f35b610104610238565b005b610120600480360381019061011b91906109ca565b6103a5565b005b61012a610441565b6040516101379190610cbd565b60405180910390f35b610148610543565b6040516101559190610c3b565b60405180910390f35b61017860048036038101906101739190610978565b610569565b005b60055481565b610188610661565b73ffffffffffffffffffffffffffffffffffffffff166101a661020e565b73ffffffffffffffffffffffffffffffffffffffff16146101fc576040517f08c379a00000000000000000000000000000000000000000000000000000000081526004016101f390610d86565b60405180910390fd5b6102066000610669565b565b60065481565b6000600160009054906101000a900473ffffffffffffffffffffffffffffffffffffffff16905090565b60007f000000000000000000000000000000000000000000000000000000000000000073ffffffffffffffffffffffffffffffffffffffff1663a9059cbb61027e61020e565b7f000000000000000000000000000000000000000000000000000000000000000073ffffffffffffffffffffffffffffffffffffffff166370a08231306040518263ffffffff1660e01b81526004016102d79190610c3b565b60206040518083038186803b1580156102ef57600080fd5b505afa158015610303573d6000803e3d6000fd5b505050506040513d601f19601f820116820180604052508101906103279190610a06565b6040518363ffffffff1660e01b8152600401610344929190610c56565b602060405180830381600087803b15801561035e57600080fd5b505af1158015610372573d6000803e3d6000fd5b505050506040513d601f19601f8201168201806040525081019061039691906109a1565b9050806103a257600080fd5b50565b7f000000000000000000000000000000000000000000000000000000000000000073ffffffffffffffffffffffffffffffffffffffff163373ffffffffffffffffffffffffffffffffffffffff1614610433576040517f08c379a000000000000000000000000000000000000000000000000000000000815260040161042a90610da6565b60405180910390fd5b61043d828261072f565b5050565b60006003547f000000000000000000000000000000000000000000000000000000000000000073ffffffffffffffffffffffffffffffffffffffff166370a08231306040518263ffffffff1660e01b815260040161049f9190610c3b565b60206040518083038186803b1580156104b757600080fd5b505afa1580156104cb573d6000803e3d6000fd5b505050506040513d601f19601f820116820180604052508101906104ef9190610a06565b1015610530576040517f08c379a000000000000000000000000000000000000000000000000000000000815260040161052790610d66565b60405180910390fd5b61053e600254600354610741565b905090565b600460009054906101000a900473ffffffffffffffffffffffffffffffffffffffff1681565b610571610661565b73ffffffffffffffffffffffffffffffffffffffff1661058f61020e565b73ffffffffffffffffffffffffffffffffffffffff16146105e5576040517f08c379a00000000000000000000000000000000000000000000000000000000081526004016105dc90610d86565b60405180910390fd5b600073ffffffffffffffffffffffffffffffffffffffff168173ffffffffffffffffffffffffffffffffffffffff161415610655576040517f08c379a000000000000000000000000000000000000000000000000000000000815260040161064c90610d46565b60405180910390fd5b61065e81610669565b50565b600033905090565b6000600160009054906101000a900473ffffffffffffffffffffffffffffffffffffffff16905081600160006101000a81548173ffffffffffffffffffffffffffffffffffffffff021916908373ffffffffffffffffffffffffffffffffffffffff1602179055508173ffffffffffffffffffffffffffffffffffffffff168173ffffffffffffffffffffffffffffffffffffffff167f8be0079c531659141344cd1fd0a4f28419497f9722a3daafe3b4186f6b6457e060405160405180910390a35050565b81600681905550806005819055505050565b60007f000000000000000000000000000000000000000000000000000000000000000073ffffffffffffffffffffffffffffffffffffffff16634000aea07f0000000000000000000000000000000000000000000000000000000000000000848660006040516020016107b5929190610cd8565b6040516020818303038152906040526040518463ffffffff1660e01b81526004016107e293929190610c7f565b602060405180830381600087803b1580156107fc57600080fd5b505af1158015610810573d6000803e3d6000fd5b505050506040513d601f19601f8201168201806040525081019061083491906109a1565b50600061085684600030600080898152602001908152602001600020546108a0565b90506001600080868152602001908152602001600020546108779190610e0e565b6000808681526020019081526020016000208190555061089784826108dc565b91505092915050565b6000848484846040516020016108b99493929190610d01565b6040516020818303038152906040528051906020012060001c9050949350505050565b600082826040516020016108f1929190610c0f565b60405160208183030381529060405280519060200120905092915050565b60008135905061091e81610f3d565b92915050565b60008151905061093381610f54565b92915050565b60008135905061094881610f6b565b92915050565b60008135905061095d81610f82565b92915050565b60008151905061097281610f82565b92915050565b60006020828403121561098a57600080fd5b60006109988482850161090f565b91505092915050565b6000602082840312156109b357600080fd5b60006109c184828501610924565b91505092915050565b600080604083850312156109dd57600080fd5b60006109eb85828601610939565b92505060206109fc8582860161094e565b9150509250929050565b600060208284031215610a1857600080fd5b6000610a2684828501610963565b91505092915050565b610a3881610e64565b82525050565b610a4781610e82565b82525050565b610a5e610a5982610e82565b610ee9565b82525050565b6000610a6f82610de1565b610a798185610dec565b9350610a89818560208601610eb6565b610a9281610f2c565b840191505092915050565b6000610aaa602683610dfd565b91507f4f776e61626c653a206e6577206f776e657220697320746865207a65726f206160008301527f64647265737300000000000000000000000000000000000000000000000000006020830152604082019050919050565b6000610b10602b83610dfd565b91507f4e6f7420656e6f756768204c494e4b202d2066696c6c20636f6e74726163742060008301527f77697468206661756365740000000000000000000000000000000000000000006020830152604082019050919050565b6000610b76602083610dfd565b91507f4f776e61626c653a2063616c6c6572206973206e6f7420746865206f776e65726000830152602082019050919050565b6000610bb6601f83610dfd565b91507f4f6e6c7920565246436f6f7264696e61746f722063616e2066756c66696c6c006000830152602082019050919050565b610bf281610eac565b82525050565b610c09610c0482610eac565b610ef3565b82525050565b6000610c1b8285610a4d565b602082019150610c2b8284610bf8565b6020820191508190509392505050565b6000602082019050610c506000830184610a2f565b92915050565b6000604082019050610c6b6000830185610a2f565b610c786020830184610be9565b9392505050565b6000606082019050610c946000830186610a2f565b610ca16020830185610be9565b8181036040830152610cb38184610a64565b9050949350505050565b6000602082019050610cd26000830184610a3e565b92915050565b6000604082019050610ced6000830185610a3e565b610cfa6020830184610be9565b9392505050565b6000608082019050610d166000830187610a3e565b610d236020830186610be9565b610d306040830185610a2f565b610d3d6060830184610be9565b95945050505050565b60006020820190508181036000830152610d5f81610a9d565b9050919050565b60006020820190508181036000830152610d7f81610b03565b9050919050565b60006020820190508181036000830152610d9f81610b69565b9050919050565b60006020820190508181036000830152610dbf81610ba9565b9050919050565b6000602082019050610ddb6000830184610be9565b92915050565b600081519050919050565b600082825260208201905092915050565b600082825260208201905092915050565b6000610e1982610eac565b9150610e2483610eac565b9250827fffffffffffffffffffffffffffffffffffffffffffffffffffffffffffffffff03821115610e5957610e58610efd565b5b828201905092915050565b6000610e6f82610e8c565b9050919050565b60008115159050919050565b6000819050919050565b600073ffffffffffffffffffffffffffffffffffffffff82169050919050565b6000819050919050565b60005b83811015610ed4578082015181840152602081019050610eb9565b83811115610ee3576000848401525b50505050565b6000819050919050565b6000819050919050565b7f4e487b7100000000000000000000000000000000000000000000000000000000600052601160045260246000fd5b6000601f19601f8301169050919050565b610f4681610e64565b8114610f5157600080fd5b50565b610f5d81610e76565b8114610f6857600080fd5b50565b610f7481610e82565b8114610f7f57600080fd5b50565b610f8b81610eac565b8114610f9657600080fd5b5056fea2646970667358221220a5987e7fb127c055b81e8aa2055fac1e7f25967d185adc2e57b958e5a6e0229c64736f6c63430008000033",
  "immutableReferences": {
    "73": [
      {
        "length": 32,
        "start": 572
      },
      {
        "length": 32,
        "start": 640
      },
      {
        "length": 32,
        "start": 1096
      },
      {
        "length": 32,
        "start": 1861
      }
    ],
    "75": [
      {
        "length": 32,
        "start": 935
      },
      {
        "length": 32,
        "start": 1921
      }
    ]
  },
  "source": "// SPDX-License-Identifier: MIT\npragma solidity >=0.7.0 <0.9.0;\n\nimport \"@chainlink/contracts/src/v0.8/VRFConsumerBase.sol\";\nimport \"@openzeppelin/contracts/access/Ownable.sol\";\nimport '@openzeppelin/contracts/token/ERC20/IERC20.sol';\n\n/**\n * THIS IS AN EXAMPLE CONTRACT WHICH USES HARDCODED VALUES FOR CLARITY.\n * PLEASE DO NOT USE THIS CODE IN PRODUCTION.\n */\n\n/**\n * Request testnet LINK and ETH here: https://faucets.chain.link/\n * Find information on LINK Token Contracts and get the latest ETH and LINK faucets here: https://docs.chain.link/docs/link-token-contracts/\n */\n \ncontract SphynxVRFConsumer is VRFConsumerBase, Ownable {\n    \n    bytes32 internal keyHash;\n    uint256 internal fee;\n    address public linkTokenAddress = 0x326C977E6efc84E512bB9C30f76E30c160eD06FB;\n    \n    uint256 public randomResult;\n    bytes32 public reqId;\n    \n    /**\n     * Constructor inherits VRFConsumerBase\n     * \n     * Network: Kovan\n     * Chainlink VRF Coordinator address: 0x8C7382F9D8f56b33781fE506E897a4F1e2d17255\n     * LINK token address:                0x326C977E6efc84E512bB9C30f76E30c160eD06FB\n     * Key Hash: 0x6c3699283bda56ad74f6b855546325b68d482e983852a7a82979cc4807b641f4\n     */\n    constructor() \n        VRFConsumerBase(\n          0x8C7382F9D8f56b33781fE506E897a4F1e2d17255,\n          0x326C977E6efc84E512bB9C30f76E30c160eD06FB\n        )\n    {\n      keyHash = 0x6e75b569a01ef56d18cab6a8e71e6600d6ce853834d4a5748b720d06f878b3a4;\n      fee = 0.0001 * 10 ** 18; // 0.1 LINK (Varies by network)\n      randomResult = 0;\n    }\n    \n    /** \n     * Requests randomness \n     */\n    function getRandomNumber() public returns (bytes32 requestId) {\n      require(LINK.balanceOf(address(this)) >= fee, \"Not enough LINK - fill contract with faucet\");\n      return requestRandomness(keyHash, fee);\n    }\n\n    /**\n     * Callback function used by VRF Coordinator\n     */\n    function fulfillRandomness(bytes32 requestId, uint256 randomness) internal override {\n      reqId = requestId;\n      randomResult = randomness;\n    }\n\n    function withdrawLink() external {\n      bool success = LINK.transfer(address(owner()), LINK.balanceOf(address(this)));\n      require(success);\n    }\n}",
  "sourcePath": "/home/andrei/workspace/sphynx-vrf-consumer/contracts/SphynxVRFConsumer.sol",
  "compiler": {
    "name": "solc",
    "version": "0.8.0+commit.c7dfd78e.Emscripten.clang"
  },
  "schemaVersion": "3.4.3",
  "updatedAt": "2022-01-13T10:33:18.566Z",
  "networkType": "ethereum",
  "devdoc": {
    "kind": "dev",
    "methods": {
      "owner()": {
        "details": "Returns the address of the current owner."
      },
      "renounceOwnership()": {
        "details": "Leaves the contract without owner. It will not be possible to call `onlyOwner` functions anymore. Can only be called by the current owner. NOTE: Renouncing ownership will leave the contract without an owner, thereby removing any functionality that is only available to the owner."
      },
      "transferOwnership(address)": {
        "details": "Transfers ownership of the contract to a new account (`newOwner`). Can only be called by the current owner."
      }
    },
    "version": 1
  },
  "userdoc": {
    "kind": "user",
    "methods": {
      "constructor": {
        "notice": "Constructor inherits VRFConsumerBase  Network: Kovan Chainlink VRF Coordinator address: 0x8C7382F9D8f56b33781fE506E897a4F1e2d17255 LINK token address:                0x326C977E6efc84E512bB9C30f76E30c160eD06FB Key Hash: 0x6c3699283bda56ad74f6b855546325b68d482e983852a7a82979cc4807b641f4"
      },
      "getRandomNumber()": {
        "notice": "Requests randomness "
      }
    },
    "notice": "Request testnet LINK and ETH here: https://faucets.chain.link/ Find information on LINK Token Contracts and get the latest ETH and LINK faucets here: https://docs.chain.link/docs/link-token-contracts/",
    "version": 1
  }
}